{
  "contractName": "Donation",
  "abi": [
    {
      "inputs": [],
      "payable": false,
      "stateMutability": "nonpayable",
      "type": "constructor"
    },
    {
      "constant": false,
      "inputs": [
        {
          "name": "_beneficiary",
          "type": "address"
        },
        {
          "name": "_goal",
          "type": "uint256"
        }
      ],
      "name": "newDonor",
      "outputs": [],
      "payable": false,
      "stateMutability": "nonpayable",
      "type": "function"
    },
    {
      "constant": false,
      "inputs": [
        {
          "name": "_addr",
          "type": "address"
        },
        {
          "name": "_numDonors",
          "type": "uint256"
        }
      ],
      "name": "contribute",
      "outputs": [],
      "payable": true,
      "stateMutability": "payable",
      "type": "function"
    },
    {
      "constant": true,
      "inputs": [],
      "name": "getBalance",
      "outputs": [
        {
          "name": "",
          "type": "uint256"
        }
      ],
      "payable": false,
      "stateMutability": "view",
      "type": "function"
    },
    {
      "constant": true,
      "inputs": [
        {
          "name": "_numDonors",
          "type": "uint256"
        }
      ],
      "name": "getDonorAmount",
      "outputs": [
        {
          "name": "",
          "type": "uint256"
        }
      ],
      "payable": false,
      "stateMutability": "view",
      "type": "function"
    },
    {
      "constant": true,
      "inputs": [
        {
          "name": "_numDonors",
          "type": "uint256"
        }
      ],
      "name": "getDonorBalance",
      "outputs": [
        {
          "name": "",
          "type": "uint256"
        }
      ],
      "payable": false,
      "stateMutability": "view",
      "type": "function"
    },
    {
      "constant": false,
      "inputs": [
        {
          "name": "_numDonors",
          "type": "uint256"
        },
        {
          "name": "transferAmount",
          "type": "uint256"
        }
      ],
      "name": "isComplete",
      "outputs": [],
      "payable": true,
      "stateMutability": "payable",
      "type": "function"
    }
  ],
  "bytecode": "0x608060405234801561001057600080fd5b50336000806101000a81548173ffffffffffffffffffffffffffffffffffffffff021916908373ffffffffffffffffffffffffffffffffffffffff160217905550610552806100606000396000f3fe608060405260043610610078576000357c0100000000000000000000000000000000000000000000000000000000900463ffffffff16806312065fe01461007d5780638418cd99146100a85780639f8d707a146100f6578063d0dcd0bb14610145578063e951a57b14610194578063fbd113e2146101cc575b600080fd5b34801561008957600080fd5b50610092610227565b6040518082815260200191505060405180910390f35b6100f4600480360360408110156100be57600080fd5b81019080803573ffffffffffffffffffffffffffffffffffffffff16906020019092919080359060200190929190505050610246565b005b34801561010257600080fd5b5061012f6004803603602081101561011957600080fd5b8101908080359060200190929190505050610331565b6040518082815260200191505060405180910390f35b34801561015157600080fd5b5061017e6004803603602081101561016857600080fd5b8101908080359060200190929190505050610356565b6040518082815260200191505060405180910390f35b6101ca600480360360408110156101aa57600080fd5b8101908080359060200190929190803590602001909291905050506103b2565b005b3480156101d857600080fd5b50610225600480360360408110156101ef57600080fd5b81019080803573ffffffffffffffffffffffffffffffffffffffff16906020019092919080359060200190929190505050610459565b005b60003073ffffffffffffffffffffffffffffffffffffffff1631905090565b600060026000838152602001908152602001600020905080600101548160030154101561032c57348160030160008282540192505081905550806002016000815480929190600101919050555060408051908101604052808473ffffffffffffffffffffffffffffffffffffffff168152602001348152508160040160008360020154815260200190815260200160002060008201518160000160006101000a81548173ffffffffffffffffffffffffffffffffffffffff021916908373ffffffffffffffffffffffffffffffffffffffff160217905550602082015181600101559050505b505050565b6000806002600084815260200190815260200160002090508060030154915050919050565b6000806002600084815260200190815260200160002090508060000160009054906101000a900473ffffffffffffffffffffffffffffffffffffffff1673ffffffffffffffffffffffffffffffffffffffff1631915050919050565b6000600260008481526020019081526020016000209050806003015482111515610454578060000160009054906101000a900473ffffffffffffffffffffffffffffffffffffffff1673ffffffffffffffffffffffffffffffffffffffff166108fc839081150290604051600060405180830381858888f19350505050158015610440573d6000803e3d6000fd5b508181600301600082825403925050819055505b505050565b6001600081548092919060010191905055506080604051908101604052808373ffffffffffffffffffffffffffffffffffffffff16815260200182815260200160008152602001600081525060026000600154815260200190815260200160002060008201518160000160006101000a81548173ffffffffffffffffffffffffffffffffffffffff021916908373ffffffffffffffffffffffffffffffffffffffff160217905550602082015181600101556040820151816002015560608201518160030155905050505056fea165627a7a72305820d7fa587b11307247e729b83a9539fc96c399e9483a744dbdd856728267dc7c910029",
  "source": "pragma solidity ^0.5.0;\ncontract Donation {\n    \n      // event Donated(address indexed donor, uint numDonors, uint amount);   事件：1，3选一个作为contribute的事件\n      // emit Donated(msg.sender, donorID, msg.value);\n      // event transfer(address indexed _from, address indexed _to, uint indexed value);\n\n    \n    address owner;// 合约拥有者的地址\n\n\n    // 定义一个`Funder`结构体类型，用于表示捐赠人，其中有他的钱包地址和他一共出资的总额度。\n    struct Funder {\n        address addr; // 捐赠人地址\n        uint amount;  // 捐赠总额\n    }\n\n\n   // 定义一个表示存储受捐人相关信息的结构体\n    struct Donor {\n        address beneficiary; // 受捐人钱包地址\n        uint fundingGoal; // 需要筹集的总金额\n        uint numFunders; // 捐赠人的id\n        uint amount; // 已赞助的总金额\n        mapping (uint => Funder) funders; // 映射，将捐赠者的id与捐赠者绑定在一起，从而能够得知，是谁给当前的受捐人捐钱了。\n    }\n\n\n    uint numDonors; // 受捐人的id数\n    mapping  (uint => Donor) donors; // 同样以映射的方式存储被受捐人的信息\n\n\n    modifier onlyOwner() {\n        require(owner == msg.sender);\n        _;          // 函数装饰器--合约拥有者权限\n    }\n    \n    constructor() public  {\n        owner = msg.sender;     // 合约构造函数\n}\n\n\n    // 新增一个`Donor`对象，需要传入受捐人的地址和需要筹资的总额\n    function newDonor (address _beneficiary, uint _goal) public{\n        numDonors++; // \n        donors[numDonors] = Donor(_beneficiary, _goal, 0, 0); // \n    }\n// 通过donorID给某个Donor对象捐助\n    function contribute (address _addr, uint _numDonors) public payable  {\n        Donor storage c = donors[_numDonors];//通过_numDonors获取对应的Donor对象\n        if (c.amount  <  c.fundingGoal) {\n         c.amount += msg.value; // 计算收到的总金额 //msg.value就是给当前合约转账的金额\n         c.numFunders++;// 捐赠人数增加\n         c.funders[c.numFunders] = Funder(_addr, msg.value); // 存储捐赠人信息\n            \n                \n    }\n    }\n    // 查看合约余额\n    function getBalance() view public returns(uint) {\n        return address(this).balance;    \n    }\n    \n    //根据受捐人id查看当前已收到的捐款金额\n    function getDonorAmount(uint _numDonors) view public returns(uint) {\n        Donor storage c = donors[_numDonors];//通过_numDonors获取对应的Donor对象\n        return c.amount;   \n    }\n        //根据受捐人id查看受捐人地址已收到的捐款金额\n    function getDonorBalance(uint _numDonors) view public returns(uint) {\n        Donor storage c = donors[_numDonors];//通过_numDonors获取对应的Donor对象\n        return address(c.beneficiary).balance;   \n    }\n    \n // 当证据经过审核，机构就会通过智能合约给受捐人的地址转账,transferAmount为转账金额\n    function isComplete (uint _numDonors,uint transferAmount) public payable {\n        Donor storage c = donors[_numDonors];\n        if (transferAmount  <=  c.amount) {\n            address(uint160(c.beneficiary)).transfer(transferAmount);\n            c.amount-=transferAmount;\n}\n}\n}\n",
  "sourcePath": "/Users/apple/git_projects/pet/contracts/tranfer1.sol",
  "compiler": {
    "name": "solc",
    "version": "0.5.0+commit.1d4f565a.Emscripten.clang"
  },
  "schemaVersion": "3.0.2",
  "updatedAt": "2019-02-25T07:22:46.725Z",
  "devdoc": {
    "methods": {}
  },
  "userdoc": {
    "methods": {}
  }
}